:020000040000fa
:080000000002040000000000f2
:020000040000fa
:100400000f8320000e7f24000e01880000000000f2
:100410000c000700a0a02000010020001100070030
:10042000000020000000e000020032000000020096
:1004300000000000ee020200000000000040da00b0
:100440000000fe004440a900a00020000000e000e1
:100450000300320000002000a00188004440a800f2
:100460000000060091018800800078000000eb0089
:1004700015003700e280400032a0b4009101ba00bc
:10048000e280400032a0b4009102ba00e280400055
:1004900032a0b4000002eb00472bde00f507b200eb
:1004a000602ce10004003a000059eb008301e900f0
:1004b000fdff3e00040037006128e100010032002a
:1004c0000082eb00040007001101ba000200e00006
:1004d000e8ff3a00000006003159ba008301e90044
:1004e0000c0032002159ba008301e90008003200f3
:1004f0000400e00003003a00e280400032a0b400b3
:10050000f5ff370011d9ba008301e900faff3a007c
:100510008100e800e180400032a0b4000000060045
:100520000040da000000fe008000780020c2bf001a
:1005300066406000e64f500001003200f10fb2004b
:1005400021118800000006008000780030c2bf0042
:1005500066406000e64f500001003200f10fb2002b
:10056000a11188000000060020c2bf0066406000a4
:10057000e64f500002003a003011800000000600f3
:1005800030118000f00fb2000000060030c2bf0042
:1005900066406000e64f500002003a00b011800053
:1005a00000000600b0118000f00fb200000006004d
:1005b000800078003004e000feff3a0001005000a7
:0805c0000000e9000000060044
:020000040000fa
:0200000401f009
:04000000ffff0000fe
:020000040000fa
:0200000401f009
:04000400ffff0000fa
:020000040000fa
:0200000401f009
:04000800ffff0000f6
:020000040000fa
:0200000401f009
:04000c0079ff000078
:020000040000fa
:0200000401f009
:040010009bff000052
:020000040000fa
:0200000401f009
:040014007fff00006a
:020000040000fa
:0200000401f009
:0400180098ff00004d
:020000040000fa
:0200000401f009
:04001c00dfff000002
:020000040000fa
:1000080090020000900200009002000090020000a0
:100018009002000090020000900200009002000090
:100028009002000090020000900200009002000080
:100038009002000090020000900200006e04000090
:100048009002000090020000900200001e060000ce
:100058009002000090020000900200009002000050
:100068009002000090020000900200009002000040
:100078009002000090020000900200009002000030
:100088009002000090020000900200009002000020
:1000980090020000900200006a0600009002000032
:1000a8009002000090020000900200009002000000
:1000b80090020000900200009002000090020000f0
:1000c80090020000900200009002000090020000e0
:1000d80090020000900200009002000090020000d0
:1000e80090020000900200009002000090020000c0
:1000f80090020000900200009002000090020000b0
:10010800900200009002000090020000900200009f
:10011800900200009002000090020000900200008f
:10012800900200009002000090020000900200007f
:10013800900200009002000090020000900200006f
:10014800900200009002000090020000900200005f
:10015800900200009002000090020000900200004f
:10016800900200009002000090020000900200003f
:10017800900200009002000090020000900200002f
:10018800900200009002000090020000900200001f
:10019800900200009002000090020000900200000f
:1001a80090020000900200009002000090020000ff
:1001b80090020000900200009002000090020000ef
:1001c80090020000900200009002000090020000df
:1001d80090020000900200009002000090020000cf
:1001e80090020000900200009002000090020000bf
:0801f8009002000090020000db
:020000040000fa
:10020800900200009002000090020000900200009e
:10021800900200009002000090020000900200008e
:10022800900200009002000090020000900200007e
:100238009002000090020000900200006e0400008e
:100248009002000090020000900200001e060000cc
:10025800900200009002000090020000900200004e
:10026800900200009002000090020000900200003e
:10027800900200009002000090020000900200002e
:10028800900200009002000090020000900200001e
:1002980090020000900200006a0600009002000030
:1002a80090020000900200009002000090020000fe
:1002b80090020000900200009002000090020000ee
:1002c80090020000900200009002000090020000de
:1002d80090020000900200009002000090020000ce
:1002e80090020000900200009002000090020000be
:1002f80090020000900200009002000090020000ae
:10030800900200009002000090020000900200009d
:10031800900200009002000090020000900200008d
:10032800900200009002000090020000900200007d
:10033800900200009002000090020000900200006d
:10034800900200009002000090020000900200005d
:10035800900200009002000090020000900200004d
:10036800900200009002000090020000900200003d
:10037800900200009002000090020000900200002d
:10038800900200009002000090020000900200001d
:10039800900200009002000090020000900200000d
:1003a80090020000900200009002000090020000fd
:1003b80090020000900200009002000090020000ed
:1003c80090020000900200009002000090020000dd
:1003d80090020000900200009002000090020000cd
:1003e80090020000900200009002000090020000bd
:0803f8009002000090020000d9
:020000040000fa
:1005c8000a0d000000000000726500006369000069
:0405d80041000000de
:020000040000fa
:1005dc000000fa00c002a800c022a800c842a8006f
:1005ec00c862a800caa2a9003b000700530007007c
:1005fc0073000700f16c20009140780000ceb3002e
:10060c0000c060003040b300cfe6b700416a200064
:10061c009140780000ceb30000c06000e040b30011
:10062c00a4e6b700a16c20009140780000ceb30086
:10063c0000c060000044a000cae6b700416b200077
:10064c009140780000ceb30000c06000b040b30011
:10065c00b4e6b700616c20009140780000ceb30086
:10066c0000c060005040b300c6e6b700616a2000cd
:10067c009140780000ceb30000c060007040b30021
:10068c00a6e6b70011e1a800011120009140780006
:10069c0000c3b30000c0700010e1b7001021a90026
:1006ac00a07320006008880011e1a8000000eb0096
:1006bc0030088800710a200091407800f0c8b3001f
:1006cc0000c0600001c2b30001407000a7e0b70099
:1006dc0094e0a800ffff37000000fa0041742000ee
:1006ec009140780000ceb30000c0600044e7b70032
:1006fc00313a800000e02f000080600001032000f0
:10070c0001007000303a880044c7bf00f043b200cb
:10071c0001c4b3000140700044e7b7000000eb00d7
:10072c00403a880042c7bf000042b2000004e0001b
:10073c00fcff32000080fa00000006000000fa0006
:10074c002002a900012220009140780090cfb30034
:10075c0000c0600020e2b70020a2a9002062a9001e
:10076c00500920004011880021e2a8002342a80073
:10077c00500920004011880000002800001188005a
:10078c0021e2a8002342a800910a200091407800a1
:10079c00f0c8b30000c0600001c4b3000140700099
:1007ac00a9e0b7009560a8008560a90022c2bf002f
:1007bc00f043b20022e2b7000080fa00000006000d
:1007cc000000fa003002a9000123200091407800bb
:1007dc0090cfb30000c0600030e2b70030a2a90097
:1007ec003062a900c0002000c011880031e2a800ce
:1007fc003342a800b3c0bf007040b300b3e0b700f1
:10080c0097c0a80087c0a90032c2bf00f043b20055
:10081c0032e2b7000080fa00000006000200fa0085
:10082c00000f78001e00e800504188002a28ed00d7
:10083c002a08e20005003200800c080001000000cc
:10084c000000000000000000f8ff37000080fa00f4
:10085c00000006000200fa00000f78001e0078006d
:10086c0060198800004e200000198800f00f20004d
:10087c00801988000000eb001019880020f021007e
:10088c002019880021e3a8000080fa00000006006f
:10089c000200fa00000f780010002000dfff0700b4
:1008ac001e007800401988002023a80010002000aa
:1008bc00daff070020c3bf00614060000004e000c5
:1008cc00fcff3200001880000080fa0000000600d7
:1008dc003600f800809fbe00829fbe00849fbe0041
:1008ec00869fbe000400fa000000eb003008880070
:1008fc0084e0a90010002000604188006041800065
:10090c00d4ff070060418000e1ff07000040880031
:10091c0001408000000021000100500000408800d0
:10092c00400020006041880060418000c9ff070042
:10093c0060418000d6ff0700104088001140800005
:10094c000000210001005000104088001040800081
:10095c008040780000c0eb0000c060003047980079
:10096c00104080004880de008040780000c0eb0022
:10097c0000c0600020479800004080008040780054
:10098c0000c0eb0000c060001047980000408000e1
:10099c004880de008040780000c0eb0000cf600093
:1009ac001e409000e34f400002003a00c0cfb3005d
:1009bc00104798001e409000e24f400002003a00a1
:1009cc00c0cfb30010479800d0cfb3009e4f10009b
:1009dc0002003a00c0cfb300004f7800e0cfb30064
:1009ec009e4f100002003a00c0cfb300004f7800b9
:1009fc003e409000e34f400002003a00c0cfb300ed
:100a0c00304798003e409000e24f400002003a0010
:100a1c00c0cfb300304798002e409000e34f400009
:100a2c0002003a00c0cfb300204798002e4090003f
:100a3c00e24f400002003a00c0cfb30020479800bc
:100a4c00d00f2000b5fe070023c2bf00624060003b
:100a5c000004e000fcff3a001e4090000000fb0088
:100a6c00aefe070023c2bf00624060000004e0003d
:100a7c00fcff3a001e00fb00a8fe070023c2bf00cb
:100a8c00624060000004e000fcff3a00e00f200030
:100a9c00a2fe070023c2bf00624060000004e00019
:100aac00fcff3a003e4090000000fb009bfe07005c
:100abc0023c2bf00624060000004e000fcff3a006b
:100acc002e4090000000fb0094fe070023c2bf00e4
:100adc00624060000004e000fcff3a00004080002f
:100aec002040880010408000304088000080fa00d0
:100afc004f03be004f02be004f01be004f00be00b0
:100b0c003600f900004006000600fa0010079800b5
:100b1c00210798000000eb00000f78000c00370054
:100b2c001e007800800078001e00900000804000bd
:100b3c00104078000080fb001e0fe8007ffe0700cd
:100b4c0033c2bf00624060000004e000fcff3a00ca
:100b5c002e0090009e0f1000f1ff35000080fa006f
:100b6c00000006000800fa00100798002107980002
:100b7c00320798003e009000000f78003e00900075
:100b8c000000e90030079800be0090001e009000a5
:100b9c00808040002e009000a2002000811f780071
:100bac00110009000280d8000001780001007800d3
:100bbc00cf0078000043b000804878002e009000f1
:100bcc00a2002000110009000280d8002007980024
:100bdc001e0fe9002e0090000000e000e7ff3a0035
:100bec00080037003e0090000000e9003007980034
:100bfc00be0090001e0090008080400000c2b30038
:100c0c00804878001e0fe9000080eb009e0f10005a
:100c1c00f4ff3a001e00900062fe0700800078008e
:100c2c001e009000b8ff07000080fa0000000600cc
:100c3c003600f800809fbe00829fbe00849fbe00dd
:100c4c00869fbe000800fa008560a90043fe0700dd
:100c5c00000f78000e80e800812e280005000900a6
:100c6c00315878006000b1000e80e8004dfe07009e
:100c7c00800078000e80e800a3ff0700402e2800bb
:100c8c0021002000a0ff0700100f20009e0f100075
:100c9c0006003a0031fe070080007800200f20008b
:100cac00808f500001003a00caa2a9000080fa000f
:100cbc004f03be004f02be004f01be004f00be00ee
:100ccc003600f900004006003600f800809fbe0098
:100cdc00829fbe00849fbe00869fbe000e00fa005d
:100cec000000eb002007980087c0a90024fe070035
:100cfc00100798000000eb00000f78001e00900019
:100d0c0060079800c0062000ee009000808f500015
:100d1c008a003200c00620006e019000800f510046
:100d2c0016003c0040062000ee009000808f500022
:100d3c003a003200400620006e019000800f5100f6
:100d4c0005003c0010062000ee009000808f500043
:100d5c002000320095003700600620006e019000e4
:100d6c00800f51007f00320070062000ee009000d2
:100d7c00808f5000840032008c0037003007200038
:100d8c006e019000800f51005a0032003007200095
:100d9c00ee009000808f500005003c0020072000e2
:100dac006e019000800f5100690032007f00370007
:100dbc0070072000ee009000808f50002900320058
:100dcc00800720006e019000800f51003700320028
:100ddc0076003700e60047001006200080087800f7
:100dec0066004700effd07008000780066004700b2
:100dfc0045ff0700402e28002100200042ff07007d
:100e0c00200320000040880000fa200010408800d9
:100e1c000000eb00000f7800d8003700e600470018
:100e2c00400620008008780066004700ddfd0700c2
:100e3c00800078006600470033ff0700402e280032
:100e4c002100200030ff070000fa2000004088003d
:100e5c0020032000104088000000eb00000f7800f9
:100e6c00c6003700e60047007007200080087800b5
:100e7c0066004700cbfd0700800078006600470045
:100e8c0021ff0700402e2800210020001eff070034
:100e9c002003200000408800200320001040880020
:100eac000000eb00000f7800b4003700e6004700ac
:100ebc00800720008008780066004700b9fd070015
:100ecc0080007800660047000fff0700402e2800c6
:100edc00210020000cff070000fa200000408800d1
:100eec0000fa2000104088000000eb00000f780092
:100efc00a2003700e6004700300720008008780089
:100f0c0066004700a7fd07008000780066004700d8
:100f1c00fdfe0700402e280021002000fafe0700ed
:100f2c00007d200000408800007d200010408800db
:100f3c000000eb00000f780090003700100020003c
:100f4c00204188000000eb00404188008b003700f6
:100f5c0020002000304188000000eb004041880058
:100f6c00860037000000eb00204188000000eb00f9
:100f7c004041880000418000004088000000eb00e8
:100f8c00004188007d0037000000eb0030418800f4
:100f9c000000eb00404188001041800010408800a8
:100fac000000eb00104188007400370040418000c5
:100fbc00e30f500071003c0020418000e10f500015
:100fcc002a003a001e009000c0000700200798007d
:100fdc00404180000000e00007003a00ae009000a5
:100fec00803e20000088b90080007800004180001d
:100ffc00008040000041880040418000e10f50001b
:10100c0007003a00ae009000400620000088b900ae
:10101c008000780000418000008040000041880082
:10102c0040418000e20f500006003a002e00900074
:10103c006a00b90080007800004180000080400008
:10104c000041880040418000e30f500004003a004a
:10105c0000418000ae00900001004000004188007b
:10106c00404180000000e800404188003041800091
:10107c00e20f50002a003a001e0090009300070077
:10108c0020079800404180000000e00007003a0073
:10109c00ae009000803e20000088b90080007800ef
:1010ac0010418000008040001041880040418000c9
:1010bc00e10f500007003a00ae00900040062000ff
:1010cc000088b9008000780010418000008040004a
:1010dc001041880040418000e20f500006003a00a9
:1010ec002e0090006a00b90080007800104180004a
:1010fc00008040001041880040418000e30f500008
:10110c0004003a0010418000ae0090000100400045
:10111c0010418800404180000000e80040418800f8
:10112c00304180008040eb00314f9800e20f5000be
:10113c000200320012c0b300324f980020418000f0
:10114c008040eb00214f9800e10f5000020032006c
:10115c0012c0b300224f9800be4890002e49900058
:10116c0002c060000004e000020032000000eb004e
:10117c00404188000000eb00100798000080fa0046
:10118c004f03be004f02be004f01be004f00be0019
:10119c003600f900004006000400fa00000f780049
:1011ac001e00e00003003a00000320001007980026
:1011bc0043003700100020009e0f100003003a007f
:1011cc0010032000100798003d003700200020007d
:1011dc009e0f100003003a00200320001007980017
:1011ec0037003700300020009e0f100003003a003b
:1011fc003003200010079800310037004000200019
:10120c009e0f100003003a004003200010079800c6
:10121c002b003700500020009e0f100003003a00f6
:10122c0050032000100798002500370060002000b4
:10123c009e0f100003003a00600320001007980076
:10124c001f003700700020009e0f100003003a00b2
:10125c007003200010079800190037008000200050
:10126c009e0f100003003a00800320001007980026
:10127c0013003700900020009e0f100003003a006e
:10128c0090032000100798000d00370090002000fc
:10129c009e0f100003003400b002200010079800cd
:1012ac00070037001e00e00003003d00d0022000c4
:1012bc0010079800020037000000eb0010079800a0
:1012cc001e0090000080fa00000006000400fa00e6
:1012dc00000f7800000320009e0f100003003a005e
:1012ec000000eb00100798004400370010032000aa
:1012fc009e0f100003003a00100020001007980009
:10130c003e003700200320009e0f100003003a001f
:10131c002000200010079800380037003003200010
:10132c009e0f100003003a003000200010079800b8
:10133c0032003700400320009e0f100003003a00db
:10134c0040002000100798002c00370050032000ac
:10135c009e0f100003003a00500020001007980068
:10136c0026003700600320009e0f100003003a0097
:10137c006000200010079800200037007003200048
:10138c009e0f100003003a00700020001007980018
:10139c001a003700800320009e0f100003003a0053
:1013ac0080002000100798001400370090032000e4
:1013bc009e0f100003003a009000200010079800c8
:1013cc000e003700900320009e0f10000300340025
:1013dc00a00020001007980008003700f002200041
:1013ec009e0f100003003c00b00020001007980076
:1013fc00020037000000eb00100798001e00900060
:08140c000080fa000000060058
:020000040000fa
:10141400000800002400000002000000d007d000f3
:1014240007d00700d0070000000000000000000003
:1014340000000000d007d00007010000d007a00082
:101444000f640000000000000000000024080000f9
:0c1454000c000000000000000000000080
:00000001FF
