:020000040000fa
:080000000002040000000000f2
:020000040000fa
:100400006f8220000e7f24000e0188000000000093
:100410000c000700c071200001002000110007003f
:10042000000020000000e000020032000000020096
:100430000000000094020200000000000040da000a
:100440000000fe004440a900000020000000e00081
:100450000300320000002000a00188004440a800f2
:100460000000060091018800800078000000eb0089
:1004700015003700e280400032a0b4009101ba00bc
:10048000e280400032a0b4009102ba00e280400055
:1004900032a0b4000002eb00472bde00f507b200eb
:1004a000602ce10004003a000059eb008301e900f0
:1004b000fdff3e00040037006128e100010032002a
:1004c0000082eb00040007001101ba000200e00006
:1004d000e8ff3a00000006003159ba008301e90044
:1004e0000c0032002159ba008301e90008003200f3
:1004f0000400e00003003a00e280400032a0b400b3
:10050000f5ff370011d9ba008301e900faff3a007c
:100510008100e800e180400032a0b4000000060045
:080520000040da000000fe00bb
:020000040000fa
:0200000401f009
:04000800ffff0000f6
:020000040000fa
:0200000401f009
:04000c0079ff000078
:020000040000fa
:0200000401f009
:04001000bfff00002e
:020000040000fa
:0200000401f009
:040014007fff00006a
:020000040000fa
:1000080090020000900200009002000090020000a0
:100018009002000090020000900200009002000090
:100028009002000090020000900200009002000080
:10003800900200009002000090020000b605000047
:10004800f00400009002000090020000c6050000c5
:100058009002000090020000900200009002000050
:100068009002000090020000900200009002000040
:100078009002000090020000900200009002000030
:100088009002000090020000900200009002000020
:100098009002000090020000900200009002000010
:1000a8009002000090020000900200009002000000
:1000b80090020000900200009002000090020000f0
:1000c80090020000900200009002000090020000e0
:1000d80090020000900200009002000090020000d0
:1000e80090020000900200009002000090020000c0
:1000f80090020000900200009002000090020000b0
:10010800900200009002000090020000900200009f
:10011800900200009002000090020000900200008f
:10012800900200009002000090020000900200007f
:10013800900200009002000090020000900200006f
:10014800900200009002000090020000900200005f
:10015800900200009002000090020000900200004f
:10016800900200009002000090020000900200003f
:10017800900200009002000090020000900200002f
:10018800900200009002000090020000900200001f
:10019800900200009002000090020000900200000f
:1001a80090020000900200009002000090020000ff
:1001b80090020000900200009002000090020000ef
:1001c80090020000900200009002000090020000df
:1001d80090020000900200009002000090020000cf
:1001e80090020000900200009002000090020000bf
:0801f8009002000090020000db
:020000040000fa
:10020800900200009002000090020000900200009e
:10021800900200009002000090020000900200008e
:10022800900200009002000090020000900200007e
:10023800900200009002000090020000b605000045
:10024800f00400009002000090020000c6050000c3
:10025800900200009002000090020000900200004e
:10026800900200009002000090020000900200003e
:10027800900200009002000090020000900200002e
:10028800900200009002000090020000900200001e
:10029800900200009002000090020000900200000e
:1002a80090020000900200009002000090020000fe
:1002b80090020000900200009002000090020000ee
:1002c80090020000900200009002000090020000de
:1002d80090020000900200009002000090020000ce
:1002e80090020000900200009002000090020000be
:1002f80090020000900200009002000090020000ae
:10030800900200009002000090020000900200009d
:10031800900200009002000090020000900200008d
:10032800900200009002000090020000900200007d
:10033800900200009002000090020000900200006d
:10034800900200009002000090020000900200005d
:10035800900200009002000090020000900200004d
:10036800900200009002000090020000900200003d
:10037800900200009002000090020000900200002d
:10038800900200009002000090020000900200001d
:10039800900200009002000090020000900200000d
:1003a80090020000900200009002000090020000fd
:1003b80090020000900200009002000090020000ed
:1003c80090020000900200009002000090020000dd
:1003d80090020000900200009002000090020000cd
:1003e80090020000900200009002000090020000bd
:0803f8009002000090020000d9
:020000040000fa
:100528000000fa00c882a900c8a2a900c982a900cf
:10053800c9a2a900c022a800bb000700f16c2000d6
:100548009140780000ceb30000c060003040b30096
:10055800cfe6b700416a20009140780000ceb30092
:1005680000c06000e040b300a4e6b700616c200062
:100578009140780000ceb30000c060005040b30046
:10058800c6e6b700616a20009140780000ceb3004b
:1005980000c060007040b300a6e6b700416c2000c0
:1005a8009140780000ceb30000c060002041b30045
:1005b800c4e6b700411820009140780080cfb3000e
:1005c80000c0600084e1b70040062000100c8800dd
:1005d800800c2000000c88008461a800510a2000cb
:1005e8009140780080cfb30000c060000004a000f4
:1005f800a5e0b70040062000100c88004118200034
:100608009140780080cfb30000c060006040b30024
:1006180084e1b700516c20009140780000ceb3000f
:1006280000c060003041b300c5e6b700a118200043
:100638009140780080cfb30000c060008ae1b70025
:1006480040062000400c8800800c2000300c8800f8
:100658008a61a800710a20009140780080cfb30019
:1006680000c060000014a000a7e0b700400620000a
:10067800400c8800a11820009140780080cfb3007a
:1006880000c060006040b3008ae1b700c16c200080
:100698009140780000ceb30000c060004041b30034
:1006a800cce6b700011920009140780080cfb30054
:1006b80000c0600090e1b70040062000700c880080
:1006c800800c2000600c88009061a800010b2000bd
:1006d80091407800f0c8b30000c0600001c3b300c7
:1006e80001407000b0e0b70040062000700c8800a0
:1006f800011920009140780080cfb30000c060004d
:100708006040b30090e1b700d16c200091407800c0
:1007180000ceb30000c060005041b300cde6b70082
:10072800611920009140780080cfb30000c06000bc
:1007380096e1b70040062000a00c8800800c20003d
:10074800900c88009661a800110b20009140780059
:1007580080cfb30000c060003040b300b1e0b70004
:1007680040062000a00c8800611920009140780004
:1007780080cfb30000c060006040b30096e1b700ce
:1007880013e1a9001221a90012c1a900211120001a
:1007980091407800f0ccb30000c0600012e1b700cf
:1007a8000000eb005008880000fa2000700888005c
:1007b800810a20009140780080cfb30000c060001b
:1007c8003040b300a8e0b70084e0a9009500a80075
:1007d80013e1a80011e1a800011120009140780060
:1007e80000c3b30000c0700010e1b7001021a900d9
:1007f800a07320006008880011e1a8000000eb0049
:1008080030088800710a200091407800f0c8b300d1
:1008180000c0600001c2b30001407000a7e0b7004b
:1008280094e0a800ffff37000000fa0041742000a0
:100838009140780000ceb30000c0600044e7b700e4
:10084800313a800000e02f000080600001032000a2
:1008580001007000303a880044c7bf00f043b2007e
:1008680001c4b3000140700044e7b7005174200090
:1008780091407800f0c8b30000c0600001c3b30025
:100888000140700045e7b7000000eb00403a8800df
:1008980040a7a90042c7bf000042b2000004e00020
:1008a800fcff32003002a9000123200091407800ab
:1008b80090cfb30000c0600030e2b70030a2a900ba
:1008c8003062a900c0002000c011880031e2a800f1
:1008d8003342a80050092000401188000000280079
:1008e8000011880021e2a8002342a800910a2000f4
:1008f80091407800f0c8b30000c0600001c4b300a4
:1009080001407000a9e0b7009560a8008560a900c3
:1009180022c2bf00f043b20022e2b7000080fa0012
:10092800000006000200fa00000f78001e00e80030
:10093800104188002228ed002208e200050032005c
:10094800800c08000100000000000000000000000a
:10095800f8ff37000080fa00000006000200fa00e5
:10096800000f78001e00780060198800004e2000f3
:1009780000198800f00f2000801988000000eb00a3
:100988001019880020f021002019880021e3a80010
:100998000080fa00000006000200fa00000f78004c
:1009a80010002000dfff07001e00780040198800b3
:1009b8002023a80010002000daff070020c3bf0092
:1009c800614060000004e000fcff32000018800075
:1009d8000080fa0000000600809fbe00821f780099
:1009e8000400fa000140800040832000808f5000fe
:1009f80006003400004080000000400080007800bd
:100a080000062f0000804000000c88000140800094
:100a18000040eb003047980040832000808f500052
:100a280002003c0011c0b30031479800014080002b
:100a38000041eb0022479800b0762000808f5000dc
:100a48000200340010c0b30020479800be40900058
:100a58002e41900002c060000004e0000400320053
:100a68000000eb00000c88000000eb00300c880050
:100a780001408000b0762000808f500007003c00c5
:100a880001408000e0ff2f000088b9008000780056
:100a980000fa200000804000300c880011408000df
:100aa80040832000808f50000600340010408000f2
:100ab800000040008000780000062f000080400001
:100ac800600c8800114080000040eb00104798003f
:100ad80040832000808f500002003c0011c0b3000a
:100ae80011479800114080000041eb00024f780048
:100af800b0762000808f50000200340010c0b30090
:100b0800004f78009e4090001e41780002c06000af
:100b18000004e000040032000000eb00600c8800d4
:100b28000000eb00900c880011408000b076200097
:100b3800808f500007003c0011408000e0ff2f002c
:100b48000088b9008000780000fa2000008040008a
:100b5800900c88000080fa004f0178004f00be001a
:100b680000400600801f78000000fa000000eb003b
:100b78003008880084e0a9000080fa004f0078005f
:100b8800004006003600f800809fbe00829fbe002d
:100b9800849fbe00869fbe000000fa008560a90001
:100ba800a04080000000e00014003a009100070017
:100bb800c0408800c1408000d00f2000808f5000c6
:100bc80005003a0010002000a04088000000eb005b
:100bd8008040880080003700c1408000e00f20007e
:100be800808f500005003a0030002000a0408800a7
:100bf8000000eb009040880077003700a04080009c
:100c0800e10f500013003a007a000700d040880036
:100c1800d1408000d00f2000808f500003003a00a0
:100c28000000eb00a04088006b003700d140800036
:100c3800e00f2000808f500003003a000000eb0016
:100c4800a04088006400370020002000a0408800f1
:100c580061003700a0408000e20f500014003a0005
:100c680064000700e0408800e1408000d00f2000c9
:100c7800808f500003003a000000eb00a04088007d
:100c880055003700e1408000e00f2000808f5000c1
:100c980003003a000000eb00a04088004e00370037
:100ca8000000eb00a0408800100020008040880071
:100cb800a0408000e30f500013003a004d000700e9
:100cc800f0408800f1408000d00f2000808f500055
:100cd80003003a000000eb00a04088003e00370007
:100ce800f1408000e00f2000808f500003003a00a0
:100cf8000000eb00a04088003700370040002000cb
:100d0800a040880034003700a0408000e40f500065
:100d180014003a00370007000041880001418000b4
:100d2800d00f2000808f500003003a000000eb0035
:100d3800a04088002800370001418000e00f200013
:100d4800808f500003003a000000eb00a0408800ac
:100d5800210037000000eb00a040880010002000b0
:100d68009040880080408000e10f50000c003a005d
:100d7800d1408000f00f200000816000e04080003a
:100d8800c800dd0000f02f00008060000000710046
:100d9800004088000000eb00804088000e0037000b
:100da80090408000e10f50000b003a00f1408000b5
:100db800f00f20000081600000418000c800dd00c5
:100dc80000f02f00008060000000710010408800d3
:100dd8000000eb00904088000080fa004f03be003e
:100de8004f02be004f01be004f00be003600f900a2
:100df800004006000200fa0020c2bf006640600002
:100e0800e64f500003003a0030118000000f7800d0
:100e18000400370031118000f00f2000808060004e
:100e2800010f78001e0078000080fa00000006001c
:020000040000fa
:100e3800000800001600000002000000d007d000e3
:100e480007d00700d007010000d00700a00f6400fa
:100e5800000000000000000000000000160800006c
:0c0e68001000000000000000000000006e
:00000001FF
